:020000040800F2
:10000000D01B00209D010008471E0008CD180008E5
:10001000451E000829040008CD2400080000000047
:100020000000000000000000000000009D1F00080C
:100030002B04000800000000491E0008C120000831
:10004000B7010008B7010008B7010008B7010008B0
:10005000B7010008B7010008B7010008B7010008A0
:10006000B7010008B7010008B7010008B701000890
:10007000B7010008B7010008B7010008B701000880
:10008000B7010008B7010008B7010008B701000870
:10009000B7010008B7010008B7010008B701000860
:1000A000B7010008B7010008B7010008B701000850
:1000B000B7010008B7010008B7010008B701000840
:1000C000B7010008B7010008B7010008B701000830
:1000D000B70100083924000845240008512400080D
:1000E000B7010008B7010008B7010008B701000810
:1000F000B7010008B7010008B7010008B701000800
:10010000B7010008B7010008B7010008B7010008EF
:10011000B7010008B7010008B7010008B7010008DF
:10012000B7010008B7010008B7010008B7010008CF
:10013000B7010008B7010008B7010008B7010008BF
:10014000B7010008B7010008B7010008B7010008AF
:10015000B7010008B7010008B7010008B70100089F
:10016000B7010008B7010008B7010008B70100088F
:10017000B7010008B7010008B7010008000000003F
:10018000B7010008B7010008DFF80CD000F0B0F8A4
:1001900000480047E9260008D01B00200648804799
:1001A00006480047FEE7FEE7FEE7FEE7FEE7FEE75C
:1001B000FEE7FEE7FEE7FEE7692100088901000887
:1001C0002DE9F05F0546002092469B46884606468C
:1001D000814640241BE0284641464746224600F01F
:1001E00077F853465A46C01A914110D31146184623
:1001F000224600F05EF82D1A67EB01084F462246B2
:100200000120002100F055F817EB00094E41201E97
:10021000A4F10104DFDC484631462A464346BDE8E6
:10022000F09F40EA01039B0703D009E008C9121FB1
:1002300008C0042AFAD203E011F8013B00F8013BA0
:10024000521EF9D27047D2B201E000F8012B491ECC
:10025000FBD270470022F6E710B513460A46044663
:100260001946FFF7F0FF204610BD421C10F8011B95
:100270000029FBD1801A704710B5002200E0521C03
:10028000835C8C5CA34201D1002BF8D1D8B2E1B2DF
:10029000401A10BD30B505460020034600E05B1C47
:1002A000934205D2EC5CC85C201A01D1002CF6D137
:1002B00030BD202A04DB203A00FA02F1002070470A
:1002C0009140C2F1200320FA03F319439040704794
:1002D000202A04DB203A21FA02F00021704721FA9B
:1002E00002F3D040C2F12002914008431946704702
:1002F000064C074D06E0E06840F0010394E8070073
:1003000098471034AC42F6D3FFF742FFF03F0008A5
:100310001040000838B50446FE2822D01248007864
:10032000F8B102F02BF9002818D00421684602F039
:100330006FFA042811D19DF80000A0420DD19DF85C
:100340000110022909D19DF80210801C0844C04305
:100350009DF80310C0B2814201D0002038BD02F0E8
:10036000EFF9012038BD00001000002070B50C46E8
:10037000054603F06DFB2146284600F069F8284643
:10038000BDE8704001F09CBC70B500244FF47A7554
:100390004FF4FF76641CE0B200232A46314602F097
:1003A000B1F8E4B2052CF5D370BD000010B5002102
:1003B0000D4C4A1EC1EB0113002023441A54401C6B
:1003C000C0B20F28FAD3491CC9B21E29F2D307497B
:1003D000002000BFC0EBC003401CC0B221F81320B6
:1003E0006428F7D310BD00006C070020F401002042
:1003F00000200B4A5FF00101C0EB0013401CC0B2AB
:10040000D1541E28F8D3074A002000BFC0EBC00318
:10041000401CC0B222F813106428F7D370470000C4
:100420006C070020F4010020FEE7704770B5074913
:100430000024C0EB0010451804E000BF00F020F8D5
:10044000641CE4B22857411CF8D170BD6C07002031
:100450000A46282103F05ABB72B6FEE770B505467E
:100460000024641CE0B203F0F3FAE0B22946FFF77F
:10047000EFFFE0B201F024FCE4B2052CF1D370BD33
:1004800070B50C49C0EBC000002401EB400500BF73
:1004900005EB4400641C4188AA89E0B2002302F005
:1004A00031F8E4B2052CF3D3B5F90C00BDE8704087
:1004B00002F080B8F401002090F83510022903D032
:1004C0008021416501207047052180F835100068C2
:1004D000016821F0010101600020704770B50446F9
:1004E00000F0EAF80546601C02D004480078044495
:1004F00000F0E2F8401BA042FAD370BD00000020DB
:100500002DE9F84F00224FF0010803254FF00F0EA0
:100510000B6808FA02F42340A3426ED14E68012E04
:1005200005D0022E03D0112E01D0122E12D18668D2
:100530004FEA420C05FA0CF7BE43CF6807FA0CF7F6
:10054000374387604668A6430C79C4F3001494408F
:1005500034434460C668570005FA07FC8C6826EAF5
:100560000C06BC403443C4604C68022C01D0122CF1
:1005700013D1D40800EB8404A346D4F82090540788
:100580004FEAD46A0EFA0AF629EA06090E6906FA53
:100590000AF646EA0906CBF8206006680C7926EAD6
:1005A0000C0604F00304BC40344304604C68E400CF
:1005B00065D5364C266846F480462660246822F0CD
:1005C000030604F480440094314C3444A446D4F827
:1005D00008489607370F0EFA07F6B4432D4EB0427F
:1005E00001D1002624E02C4EB04201D101261FE0AB
:1005F0002A4EB04202D102261AE040E0284EB04214
:1006000001D1032614E0274EB04201D104260FE0A9
:10061000254EB04201D105260AE0244EB04201D158
:10062000062605E0224EB04201D1072600E008264A
:10063000BE402643CCF808681E4E34684F689C4381
:10064000FF0300D51C4334601A4C241D26684F68F4
:100650009E43BF0300D51E432660164E08363468FD
:100660004F689C43FF0200D51C433460114E0C368A
:1006700034684F689C43BF0200D51C433460521C51
:10068000102AFFF445AFBDE8F88F0000443802405F
:100690000030014000000240000402400008024017
:1006A000000C0240001002400014024000180240FA
:1006B000001C0240003C0140014880687047000077
:1006C0000000002070B5040025D094F83D000025FE
:1006D00020B984F83C50204600F002FB242084F826
:1006E0003D002068016821F0010101602068016877
:1006F00041F4004101602068016821F4004101607B
:1007000000F056FC4D4A6168914201D84C4900E026
:100710004C49884201D2012070BD4B492368B0FB8F
:10072000F1F15E6826F03F060E435E606368934217
:1007300006D94FF4967359434FF47A73B1FBF3F132
:100740002368491C1E6A26F03F063143196261681E
:10075000914210D84900401EB0FBF1F2521CC2F386
:100760000B02042A01D2042022E0B0FBF1F0401C6D
:10077000C0F30B001CE0A268F2B301EBC10303EB72
:100780000116431EB3FBF6F35B1C43F480431B05C9
:1007900049D092B301EBC10202EB0111401EB0FB44
:1007A000F1F0401CC0F30B0040F4804040F40040E6
:1007B0002168CA694CF6FF739A431043C861D4E9B3
:1007C000071001432068026822F0C0021143016053
:1007D000D4E9030101432068826848F2FF339A4359
:1007E00011438160D4E9050108432168CA6822F0F9
:1007F000FF021043C86001E00EE016E020680168C7
:1008000041F0010101602564202084F83D0025634A
:1008100084F83E50002070BD01EB4106431EB3FB3F
:10082000F6F35B1CB3E70120C2E701EB4101401E78
:10083000B0FBF1F0401CC0F30B00B7E7A08601004D
:1008400080841E0000093D0040420F002DE9FF4F4B
:1008500081B089460446FFF72FFF054694F83D0016
:100860004FF0010820287DD119230122504920464C
:10087000009501F04DF9002874D194F83C0001284E
:1008800070D0012084F83C0020680168C90703D1BA
:10089000016841F0010101602068016821F40061F4
:1008A0000160242084F83D00002626644148E0626F
:1008B0004FF0011B20272068016841F4807101601E
:1008C0000095002259462046049B01F021F950B1C1
:1008D00020680068C00502D54FF400702064032032
:1008E00005B0BDE8F08F216809F0FE000861FFF750
:1008F000E3FE2168054648694969C0F34000C1F339
:1009000080214FF0A00A0FE0FFF7D6FE411B0498AC
:10091000814200D808B984F83DA021684869496936
:10092000C0F34000C1F3802194F83D20A02A02D0FA
:1009300008B90029E8D084F83D7020684169C943AE
:10094000890716D4016841F400710160206841698B
:1009500080691923012216492046009501F0D8F834
:10096000B8B900E021E084F83D7084F83C600020D4
:10097000B6E7016841F40071016021686FF480609E
:100980004861192301220A492046009501F0C0F868
:1009900008B10120A4E7039808F1010880458AD333
:1009A00084F83D7084F83C60F3E7022098E700008B
:1009B000020010000000FFFF2DE9FF4F83B09A46B0
:1009C000DDE9119793460446DDF84080FFF774FE99
:1009D000054694F83D00202870D119230122714961
:1009E0002046009501F094F80028F5D194F83C00D9
:1009F000012863D0012084F83C0020680168C90701
:100A000003D1016841F0010101602068016821F40F
:100A100000610160222084F83D00402084F83E00FF
:100A200000262664C4F82480A4F82A90608D2085CE
:100A30005D48E062CDE9007553465A462046049968
:100A400000F06EFF00287CD1208DD0B1012821D08C
:100A50000228206824D0416980690090208D0328F5
:100A600069D801282BD0514902283B464FF000029B
:100A7000009559D08846204601F04AF8002860D1F8
:100A80003CE02068416981690091016841F400718E
:100A9000016077E02068016821F480610160F0E77F
:100AA000016821F4806101602068016841F40061FF
:100AB0000160206841698069009063E06FE02A4628
:100AC0003946204601F0A3F898BB20680069616AA6
:100AD00008704EE02068016841F4007101602068F0
:100AE0000069616A0870606A401C6062218D491E5D
:100AF0002185618D491E6185216838E02068016883
:100B000021F48061016020680069616A0870606A90
:100B1000401C6062208D401E2085608D401E6085D7
:100B20003B46002241460095204600F0F1FF00B907
:100B3000D0E706E0FFE72A463946204601F067F88D
:100B400018B1012007B0BDE8F08F20680069616A24
:100B50000870606A401C6062218D491E2185618D8C
:100B6000491E618521684A69D24352070AD409693E
:100B70000170606A401C6062208D401E2085608D7F
:100B8000401E6085208D00287FF468AF202084F807
:100B90003D0084F83E6084F83C600020D2E70220EB
:100BA000D0E70000020010000000FFFF0400010079
:100BB0002DE9FF4F83B09A46DDE91197934604462D
:100BC000DDF84080FFF778FD054694F83D002028C9
:100BD0007FD11923012240492046009500F098FF5B
:100BE000002876D194F83C00012872D0012084F8C6
:100BF0003C0020680168C90703D1016841F0010188
:100C000001602068016821F400610160212084F8FE
:100C10003D00402084F83E0000262664C4F824806D
:100C2000A4F82A90608D20852C48E062CDE90075FB
:100C300053465A462046049900F0F0FE70B930E061
:100C40002A463946204601F015F858B1206C042890
:100C500004D12068016841F400710160012007B0EF
:100C6000BDE8F08F606A216800780861606A401C06
:100C70006062218D491E89B22185628D521E628576
:100C800022685369DB435B070BD469B100781061BC
:100C9000606A401C6062208D401E2085608D401E71
:100CA0006085208D0028CBD12A463946204600F0A9
:100CB00009FF0028CAD154F83D0B016841F40071C6
:100CC0000160202004F81E09E67766770020C6E759
:100CD000FFE70220C3E70000020010000000FFFF52
:100CE00010B586B0044614216846FFF7B3FA1349DD
:100CF0002068884220D11248016841F00201016059
:100D00000068694600F002000590C02000901220A3
:100D100001900120029003200390042004900948D0
:100D2000FFF7EEFB06481030016841F40011016046
:100D3000006800F40010059006B010BD005400409B
:100D400030380240000402400248816802781144B1
:100D500081607047000000200B4810B5016841F425
:100D600000710160016841F480610160016841F433
:100D700080710160032000F06FF8002000F006F899
:100D800000F024F8002010BD003C024070B50D4D6D
:100D900004464FF47A712878B1FBF0F00A490968EB
:100DA000B1FBF0F000F080FB48B9102C07D2002214
:100DB0002146501E00F030F800206C6070BD01200C
:100DC00070BD0000000000200C0000200A4808B59B
:100DD000016841F480410160006800F480400090A7
:100DE0000548001F016841F080510160006800F073
:100DF0008050009008BD000044380240002809DB04
:100E000000F01F02012191404009800000F1E02024
:100E1000C0F8001170470000F0B40E4B1B680C4680
:100E2000C3F30223C3F10705042D00D90425191DBE
:100E3000072901D2002300E0DB1E012606FA05F196
:100E4000491E214099409E40761E16403143F0BC19
:100E500001F075BB0CED00E0064900F007020868E0
:100E60004FF6FF03184040EA0220034A104308608F
:100E7000704700000CED00E00000FA052DE9F04796
:100E80000E46050065D0DFF81481D8F80000F7B2EF
:100E900000F00F00B04207D288F80070D8F80000C8
:100EA00000F00F00B04254D128683D4C810712D5A4
:100EB000400703D5206840F4E05020602878000700
:100EC00003D5206840F4604020602068A96820F0C5
:100ED000F000084320602878C0072DD030496868AA
:100EE0000839012812D0022813D0032811D009682C
:100EF000890700292DDA216821F0030101432160CF
:100F0000FFF7DAFB814641F2883A0EE0096889036F
:100F1000EFE709688901ECE7FFF7CEFBA0EB0901D9
:100F2000514502D90320BDE8F0872068696800F0C8
:100F30000C00B0EB810FEFD1D8F80010404601F063
:100F40000F01B14207D90770006800F00F00B042EE
:100F500001D00120E7E72878400705D52068E96837
:100F600020F4E050084320602878000706D5206868
:100F7000296920F4604040EAC100206000F038F8A0
:100F80002168084AC1F30311515CC8400649086052
:100F900006480068FFF7FAFE0020C4E7003C024064
:100FA00008380240603B00080C00002004000020CC
:100FB0000448054900680968044AC1F38221515C6C
:100FC000C84070470C00002008380240703B000801
:100FD0000448054900680968044AC1F34231515C7C
:100FE000C84070470C00002008380240703B0008E1
:100FF000154810B5006810F00C02144813D01449BD
:10100000042A0FD0082A0ED10F4C241F226823680F
:1010100002F03F025B0207D52068C0F38810A0FBF6
:10102000010106E0084610BD2168C1F38811A1FB4B
:1010300000010023FFF7C4F82168C1F30141491CF6
:101040004900B0FBF1F010BD083802400024F40064
:1010500040787D012DE9F84F04006ED02078DFF84C
:101060003C93C007A9F104054AD009F104000168C6
:10107000C1F38101012908D00068C0F38100022872
:101080000AD1D9F80000400206D52868800337D578
:1010900060680028E1D033E06068B0F5803F10D090
:1010A000B0F5A02F286810D020F480302860286880
:1010B00020F4802028606068A8B1FFF7FDFA06469A
:1010C0000DE0286840F48030F4E740F48020286088
:1010D000F7E700BFFFF7F0FA801B642873D8286891
:1010E0008003F7D50CE0FFF7E7FA064605E000BFFE
:1010F000FFF7E2FA801B6428F0D828688003F7D451
:101100002078DFF89C8280074FF0000A3ED5A34884
:10111000001D016811F00C0F08D00068C0F38100B9
:1011200002280BD1D9F80000400207D428688007B4
:1011300016D5E068012800D112E02BE1E068B8B1D3
:101140000120C8F80000FFF7B7FA064605E000BF27
:10115000FFF7B2FA801B0228C0D828688007F7D5AD
:101160002868216920F0F80040EAC10028600DE0FD
:10117000C8F800A0FFF7A0FA064604E0FFF79CFAC3
:10118000801B02281FD828688007F7D42078000722
:1011900022D5824E83486169703671B101210160A8
:1011A000FFF78AFA074604E0FFF786FAC01B022819
:1011B00009D830688007F7D50EE0C0F800A0FFF727
:1011C0007BFA074605E082E0FFF776FAC01B0228AB
:1011D0007DD830688007F7D42078400768D5DFF8DD
:1011E000BCB100270BF13C0BDBF80000C0000BD4B6
:1011F000DBF8001041F08051CBF80010DBF8000064
:10120000012700F080500090674E3068C00510D470
:10121000306840F480703060FFF74EFA009005E0CF
:10122000FFF74AFA0099401A022850D83068C005E2
:10123000F6D55A4EA0686C3601280FD005283068C4
:1012400010D020F001003060306820F004003060E1
:10125000A068B8B1FFF730FA00900FE0306840F0B6
:101260000100F4E740F004003060F7E7FFF724FAEC
:101270000099411A41F28830814266D8306880076F
:10128000F4D50EE0FFF718FA009007E0FFF714FA24
:101290000099411A41F28830814256D8306880075F
:1012A000F4D42FB1DBF8001021F08051CBF80010FE
:1012B000A069C8B33949091D0968C1F38101022930
:1012C0004AD00228504607D0C8F8600000E03CE051
:1012D000FFF7F2F904463BE04746C8F86000FFF725
:1012E000EBF9064605E000BFFFF7E6F9801B022890
:1012F0002BD828688001F7D4D4E907010843A16AF4
:101300002A4A490802EB0141626A41EA8211084314
:1013100094F82C1040EA0161C9F8001001203866E9
:10132000FFF7CAF9044606E036E000BFFFF7C4F94C
:10133000001B022809D828688001F7D52CE000BFDF
:10134000FFF7BAF9001B022802D90320BDE8F88F85
:1013500028688001F4D41FE00128F7D0D9F80000F4
:10136000E26900F48001914214D1226A00F03F0149
:1013700091420FD147F6C071626A0140914209D192
:10138000A26A00F44031914204D1E16A00F0706039
:10139000884201D00120D9E70020D7E70438024075
:1013A00000004742800E4742007000400000FFFFEF
:1013B00070B5040005D00025A56294F8510010B165
:1013C00006E0012070BD84F85050204600F030F84F
:1013D000022084F851002068016821F0400101607A
:1013E000D4E901010843D4E90312114308436169B8
:1013F0000843218B01F400710843E1690843216A25
:101400000843A16A084321680860A069042101EA31
:101410001040616A0843216848602068C16921F46E
:101420000061C1616565012084F85100002070BD34
:1014300010B586B0044614216846FEF70BFF134929
:101440002068884220D112480021026842F480526C
:101450000260006800F4805005900D48143802685E
:1014600042F001020260006800F001000590E020F7
:1014700000900220CDE90101032003900520049093
:1014800069460448FFF73CF806B010BD0030014043
:10149000443802400000024002480168491C0160D3
:1014A000704700002C00002010B5401EB0F1807F76
:1014B00001D3012010BD4FF0E02460610F216017BF
:1014C00001F03DF80020A06107202061002010BD40
:1014D00010B5FFF7E1FF10BD7047000070B502685E
:1014E00004461068D168536910F00F0F52D003F012
:1014F000010501F490762E435FD0C20705D0CA05DE
:1015000003D5E26B42F00102E263420705D5DA0738
:1015100003D0E26B42F00202E263820705D5DA07EC
:1015200003D0E26B42F00402E263020707D501F048
:1015300020022A4303D0E26B42F00802E263E26B2E
:10154000002A33D0800604D5880602D5204600F054
:101550002FFE20684069E16BC0F38010090700D4BA
:1015600028B3204600F016FE2068416949061AD5C6
:10157000416921F040014161606BA0B11B490165E7
:10158000606BFEF799FF002810D0606B016DBDE81D
:1015900070400847830610D58B060ED52046BDE85F
:1015A000704000F005BE2046FFF796FF70BD204654
:1015B000FFF792FF0020E06370BD030606D50B061F
:1015C00004D52046BDE8704000F0D2BE4006F3D5F9
:1015D0004806F1D5D168204621F04001D160202194
:1015E00084F8391000F071F970BD00008521000801
:1015F00070B5040004D094F83900002510B106E05D
:10160000012070BD84F83850204600F023F82420D3
:1016100084F839002068C16821F40051C160204677
:1016200000F012FE2068016921F4904101612068F8
:10163000416921F02A0141612068C16841F40051EB
:10164000C160E563202084F8390084F83A00002066
:1016500070BD0000F0B587B0044614216846FEF75F
:10166000F9FD3D4A266800213C4802230324072552
:10167000964222D1394A1432166846F01006166096
:10168000126802F010020592026842F00102026044
:10169000006802AA00F00100059082E832006002B2
:1016A000CDE9000369462E48FEF72AFF01220021FA
:1016B0002520FFF7B1FB252024E0284A294F1032CE
:1016C000BE4223D1166846F400361660126802F452
:1016D00000320592026842F008020260006802AE21
:1016E00000F00800059086E832006020CDE9000394
:1016F00069461D48FEF704FF002201212620FFF75E
:101700008BFB2620FFF77AFB07B0F0BD174FBE42D8
:10171000FAD1166846F480261660126802F4802218
:101720000592026842F002020260006802AE00F018
:101730000200059086E832004FF44060CDE90003D6
:1017400069460B48FEF7DCFE022200212720FFF746
:1017500063FB2720D6E7000000100140303802402C
:101760000000024000440040000C024000480040DD
:101770000004024090F83A30202B22D1F9B1F2B1A6
:1017800090F83830012B1CD081628285C2850021FF
:10179000C163222280F83A2080F838100168CA68B4
:1017A00042F48072CA6001684A6942F001024A61EB
:1017B0000068C16841F02001C1600020704701202D
:1017C000704702207047000010B500680B4988423E
:1017D00003D1BDE8104000F0C7BB094988420BD1D6
:1017E00008480178084801F0F9FABDE810400122E4
:1017F00004490648FFF7BEBF10BD000000100140BD
:101800000044004084000020600A00207401002091
:101810002DE9F843044690F839001F4616460D4658
:10182000202850D1B5B1AEB194F8380001284AD083
:10183000012084F838004FF00008C4F83C802120D3
:1018400084F83900FEF738FFA6848146E68484F8E0
:10185000388026E00120BDE8F883E08C401EE0845B
:10186000A0684B46B0F5805F4FF000024FF080015A
:101870002046009703D000F0ACFDE8B90DE000F081
:10188000A8FDC8B928882168C0F30800486020690D
:1018900008B16D1C05E0AD1C03E0216815F8010BD3
:1018A0004860E08C0028D8D14B46002240212046D9
:1018B000009700F08EFD08B10320CCE7202084F8CB
:1018C00039000020C7E70220C5E77047FEE70000A7
:1018D000064B10B55C78C2F30723D2B214B1037083
:1018E0000A7010BD0B70027010BD000010000020C7
:1018F00001684A69D24352050FD46FF480624A618D
:10190000002140F8301F202242738173026942F0A7
:10191000040202610173012070470020704700003B
:101920002DE9F84F0446006889460B9D01689846EA
:10193000174641F4806101602068016841F48071BC
:10194000016000954FF0011B0022594620460A9B7A
:1019500000F0DEF84FF4007A40B120680068C0055E
:1019600001D5C4F840A00320BDE8F88F216809F034
:10197000FE0008612B46284920460A9A00F0FCF830
:10198000F0BB20684169806900902A4620460A9988
:1019900000F070F940B1206C04283AD12068016849
:1019A00041F40071016034E0FEB2B8F1010F09D0DA
:1019B0002168380A08612A4620460A9900F05AF937
:1019C0000028E8D1206806612A4620460A9900F0DE
:1019D00051F90028DFD12068016841F4807101606D
:1019E00000950022594620460A9B00F091F80028F5
:1019F000B3D1216809F0FF0040F00100086100E068
:101A000007E02B46044920460A9A00F0B5F8002862
:101A1000AAD00120A8E70000020001002DE9F84348
:101A2000044600680D46DDE90897016898461646A9
:101A300041F4807101604B4600224FF001112046B5
:101A4000009700F065F848B120680068C00502D52D
:101A50004FF4007020640320BDE8F883216805F08E
:101A6000FE0008613B464A461549204600F084F8CE
:101A700088B920684169806900903A464946204605
:101A800000F0F8F848B1206C042804D120680168FF
:101A900041F4007101600120DEE7F5B2B8F1010FF9
:101AA00009D02168300A08613A464946204600F0CC
:101AB000E1F80028E7D1206805610020CCE70000AC
:101AC0000200010070B516460D4604460DE02046A2
:101AD000FFF70EFF08B1012070BD681C05D0FEF7AE
:101AE000EBFD801BA84207D835B120684069C04390
:101AF0004007ECD4002070BD002044F8300F2021B6
:101B00006173A073216941F0200121612073E2E734
:101B10002DE9F0471E4690460D460446C1F307479F
:101B2000DDF8209008E0701C06D0FEF7C5FDA0EBA4
:101B30000900B0420FD876B12068012F18D0806913
:101B400025EA00000004000C14D000214145EAD031
:101B50000020BDE8F087002044F8300F2021617399
:101B6000A073216941F02001216120730120F0E779
:101B70004069E5E70121E9E72DE9F0479A469146FA
:101B80000E46044600254FF02008C1F3074725E024
:101B900020684069C043400514D42068016841F4BE
:101BA0000071016021686FF480604861256384F8EA
:101BB0003D8084F83E50206C40F00400206484F89E
:101BC0003C501FE0B9F1FF3F08D0FEF775FDA0EBD8
:101BD0000A0149450CD8B9F1000F09D02068012F3E
:101BE00013D0806926EA00000004000C0BD0CFE778
:101BF00044F8305F84F80D80A573206940F0200020
:101C0000206125730120BDE8F0874069EAE72DE9EE
:101C1000F041002590460E460446202717E0406913
:101C2000C043C0060CD454F8301B6FF0100048615C
:101C300044F810596777A577206A2062257717E066
:101C4000FEF73AFDA0EB0800B04208D83EB120688C
:101C50004169C9434906E2D40020BDE8F08144F857
:101C6000305F6773A573206940F020002061257301
:101C70000120F2E770B516460D4604460DE02046F9
:101C8000FFF736FE08B1012070BD681C05D0FEF7D5
:101C900013FD801BA84207D835B120684069C043B6
:101CA0000006ECD4002070BD002044F8300F202145
:101CB0006173A073216941F0200121612073E2E783
:101CC0000122302101F022BF114808B5016841F01E
:101CD00080010160016801F080010091016841F01C
:101CE00001010160016801F001010091016841F00A
:101CF00002010160016801F002010091016841F0F8
:101D000008010160006800F00800009008BD0000B4
:101D1000303802400D4810B50B4901600C49416054
:101D200000214FF480428160C0E90312416181616A
:101D3000C1610162FEF7C6FC002803D0BDE8104077
:101D4000FEF78ABB10BD0000005400408800002050
:101D5000A08601000F4810B50D4901604FF4827153
:101D6000416000218160C1604FF400720161C0E9EF
:101D70000512C1610162416281620A21C162FFF7FD
:101D800017FB002803D0BDE81040FEF765BB10BD6F
:101D900000300140DC0000200C4810B50A49016009
:101DA0000B494160002181600C22C160C0E904122E
:101DB0008161C161FFF71CFC002803D0BDE8104021
:101DC000FEF74ABB10BD00000010014034010020A6
:101DD00040420F000C4810B50A4901604FF4E13150
:101DE0004160002181600C22C160C0E90412816160
:101DF000C161FFF7FDFB002803D0BDE81040FEF7EE
:101E00002BBB10BD00440040740100200C4810B5ED
:101E10000A4901604FF4E1314160002181600C22E8
:101E2000C160C0E904128161C161FFF7E1FB0028D4
:101E300003D0BDE81040FEF70FBB10BD00480040C6
:101E4000B4010020FEE7FEE770470000024BC0EB44
:101E500000101844425470476C0700207FB582B0D0
:101E600015460C46064600F070FC02200090012347
:101E700005AA2146304601F0FFFD01F0EDFD00F01E
:101E80007DFB00282FD0032101A800F0C1FC03280E
:101E900028D19DF81410284600F0BAFC04469DF89D
:101EA000140084421ED101210DF1070000F0B0FCA6
:101EB000012817D19DF804009DF8051008449DF8ED
:101EC00006100844C1B2002004E02A5C401C114402
:101ED000C9B2C0B2A042F8DBC8439DF80710C0B237
:101EE000814202D0002006B070BD2046FBE7000012
:101EF00010B5411C0BD0094C0021C0B22160382123
:101F000000F0A8FC411C01D10121216010BD044852
:101F10000178407840EA012010BD00001400002044
:101F20002E09002038B50D46044600884FF47A7318
:101F30000222694600F056FB9DF801009DF8001052
:101F400041EA002028802088801C208038BD0000C5
:101F500002460448407810B141EA0220704742EA44
:101F6000012070471000002009480949094A0078FB
:101F70008B68D0548868401CC21700EB526222F074
:101F80007F02801A886001220348FFF7F3BB00003C
:101F900020000020BD09002034010020704738B522
:101FA00004468DF80010080A8DF8010020884FF6CD
:101FB000FF730222694600F035FB2088801C2080D8
:101FC00038BD00002DE9FC410020ADF804000420DC
:101FD000ADF8000000F0F8FA002849D00025254EA1
:101FE00018E06846FFF7DBFF002406EB470700BF59
:101FF00007EB4400B0F902106846FFF7D0FF641CFD
:10200000E4B2052CF4D3B7F90C106846FFF7C7FF0C
:102010006D1CEDB2C5EBC50736F91710481C01D091
:10202000642DDED3BDF8000001B201A8FFF7B7FFB1
:102030000024114D4FF6FF760DE0411933460F2273
:10204000BDF8000000F0EEFABDF800000F30641C8F
:10205000ADF80000E4B2C4EB04102956491C01D0CD
:102060001E2CEAD3BDF8000001B201A8FFF797FFCC
:10207000BDE8FC81F40100206C0700202DE9FF4140
:102080000E46054600246F46601CFFF731FF07EB44
:102090004401641CE4B24880052CF5D30749C5EB24
:1020A000C50001EB4000ADF80050ADF80C600E2209
:1020B0006946FEF7B6F8BDE8FF810000F401002094
:1020C00010B5FEF741FEBDE81040FFF701BA000071
:1020D00030B593B030216846FEF7BCF814210CA847
:1020E000FEF7B8F81E480025016841F080510160F4
:1020F000006800F0805011901A48016841F4804156
:1021000001600068022400F48040119001200090DA
:10211000000401908001CDE90640192008904FF499
:10212000A870CDE9090404200B906846FEF792FFE1
:1021300008B172B6FEE70CA90F2081E831004FF418
:10214000A0500F904FF48050109005210CA8FEF77E
:1021500095FE002801D072B6FEE713B030BD000036
:1021600040380240007000400548016841F47001A9
:10217000016003494FF0006080390860704700003B
:1021800088ED00E010B5806B0021C185C184FFF7A8
:10219000A3F910BD0168CA6822F49072CA60016890
:1021A0004A6922F001024A61202180F83A10704702
:1021B00010B590F83A10222901D0022010BD816894
:1021C000B1F5805F11D00169002901681FD049680D
:1021D00001F07F03816A4A1C82620B70C18D491E27
:1021E0000904090CC18518D02BE00269816A002A14
:1021F0000268526805D0D2B20A80816A491C8162A5
:10220000ECE7C2F308020A80816A891CF7E74A6892
:10221000816A4B1C83620A70E0E70168CA6822F099
:102220002002CA600168CA6822F48072CA6001682C
:102230004A6922F001024A61202180F83A10FFF732
:10224000C3FA002010BD00002DE9F04104460068EB
:102250000169E26821F44051114301612169A068DC
:10226000E26908436169114308432168CA6849F279
:102270000C639A430243CA6020684169A26921F451
:10228000407111434161E069192764253226B0F598
:10229000004F354A354920684FF0000806D0884283
:1022A00001D0904236D1FEF793FE35E0884201D04E
:1022B000904202D1FEF78CFE01E0FEF779FE6168E4
:1022C0004A18A0FB070148EB0803FDF779FF014618
:1022D000B0FBF5F00201B1FBF5F06FF018035843C5
:1022E00001EB800006EBC000B0FBF5F000F0F80059
:1022F00002EB4002B1FBF5F0584301EB800006EB26
:10230000C000B0FBF5F000F00700216810448860C1
:10231000BDE8F081FEF74CFE61688B0F8A00A0FBE0
:102320000701FDF74DFF0146B0FBF5F06FF0180215
:10233000504301EB800006EB0010B0FBF5F000F01D
:10234000F002B1FBF5F002EB0012B1FBF5F06FF01B
:102350001803584301EB800006EB0010B0FBF5F0CA
:1023600000F00F00D1E70000001401400010014010
:1023700090F83910212901D0022070478168B1F509
:10238000805F016A0BD04A1C0262026809785160C2
:10239000C18C491E0904090CC1840ED017E00988BC
:1023A0000268C1F30801516001690029016A02D085
:1023B000491C0162ECE7891CFBE70168CA6822F04E
:1023C0008002CA600068C16841F04001C16000201D
:1023D00070472DE9F041984617460E460446069D83
:1023E0001DE0681C1BD02DB1FEF766F9A0EB0800BC
:1023F000A84214D92068C16821F4D071C160206856
:10240000416921F001014161202084F8390084F8FC
:102410003A00002084F838000320BDE8F0812068ED
:10242000006836EA000004D00020B842D9D000206D
:10243000F3E70120F9E700000148FFF74FB800007B
:10244000340100200148FFF749B800007401002062
:102450000148FFF743B80000B40100200248002102
:102460008160416070470000200000200A494868F0
:102470008A6890420CD009484A68805C4A68521CBD
:10248000D31702EB536323F07F03D21A4A607047DD
:102490004FF0FF307047000020000020BD090020F1
:1024A0002DE9F0410D46064600244FF6FF7707E080
:1024B00031193B4601220448FFF7AAF9641CE4B233
:1024C000AC42F5D3BDE8F08134010020FEE7000006
:1024D000054904484FF4007288666C31024800F0E8
:1024E0009DBD0000ED240008600A002001B54FF6F4
:1024F000FF73012269460248FFF78AF908BD000010
:10250000740100202DE9FC4115466C4606460A463A
:102510001F462046611CFFF7DBF92A46E11CA01C80
:10252000FFF7D6F93A46611D201DFFF7D1F90623C2
:102530006A462A21304600F0C1F8BDE8FC8109074F
:10254000090E002804DB00F1E02080F80014704739
:1025500000F00F0000F1E02080F8141D704702E049
:1025600008C8121F08C1002AFAD17047704700201E
:1025700001E001C1121F002AFBD1704738B50024C9
:1025800025460121684600F043F900280FD09DF848
:102590000010E0B260F30F2461F30704FF2901D1BA
:1025A000FF2805D06D1CEDB20A2DEAD9002038BDF8
:1025B000012038BD03490A6810440A688242FCD3EE
:1025C000704700002C00002010B564230222A021D7
:1025D0000348FEF73BF908B1002010BD012010BDF3
:1025E000880000203EB50D4C2378012B12D001232A
:1025F0002370642392B28DE80E00C2B2062101EA74
:10260000D01040F0A00101230548FEF7D5F90021C4
:10261000217008B100203EBD01203EBD8500002094
:10262000880000202DE9FF4F054622480F4685B05F
:1026300001781646012921D0012180460170FEF75C
:102640003BF84FF000094FF0640A4FF0060B03907F
:1026500005F00F00C0F11004B44200D9B4B20BEA87
:10266000D510CDE9007440F0A001EAB20123124870
:10267000CDF808A0FEF79CFA20B113E0002009B0C5
:10268000BDE8F08F0A20FDF729FF05EB0400361B9B
:10269000274485B209D0FEF70FF80399411A08982C
:1026A0008142D5D388F80090E8E788F800900120AF
:1026B000E5E700008500002088000020F8B51C46F2
:1026C00015460E46074600F040F8032000902346CA
:1026D0002A463146384601F0CFF901F0BDF93846B7
:1026E000BDE8F840FDF716BEFEF736FBFFF7F0FC3D
:1026F000FFF7EAFAFFF70EFBFFF72CFBFFF74CFBA7
:10270000FFF768FBFFF782FBFFF7E2FE01220549B6
:102710000548FFF72FF8012204490548FFF72AF87A
:10272000FEE700002000002034010020840000208B
:102730007401002001480068704700002C00002050
:102740001E20401EC0B2FCD27047FFF787BE0000BB
:102750002DE9FC410020ADF80000FFF735FF00280F
:102760004FD001A96846FFF7DDFB0DF10601684671
:10277000FFF7D8FB0026DFF890800E271BE000BF94
:10278000C6EBC60108EB41010C466846FFF7CAFBE1
:102790005FF0000504EB45016846891CFFF7C2FBAA
:1027A0006D1CEDB2052DF5D304F10C016846FFF761
:1027B000B9FB761CF6B2BDF90400B0FBF7F0B042ED
:1027C000DED80024114E4FF6FF770F2510E000BF32
:1027D000C4EB041081193B460F22BDF80000FFF73F
:1027E00001FFBDF800000F30641CADF80000E4B23A
:1027F000BDF90600BDF90410401A90FBF5F0A042A7
:10280000E6DCBDE8FC810000F40100206C0700203C
:102810002DE9F0410F4606460024FFF78BFF0546E1
:10282000DFF82C80FFF722FE411C05D006B13055A1
:10283000641CFFF77FFF0546BC4206DAFFF77AFF0C
:10284000D8F80410401B8842ECD92046BDE8F0813E
:102850001800002008B502236A46FFF7FFFA022895
:1028600002D04FF0FF3008BD9DF801109DF8000028
:10287000FFF76EFB80B208BD012100F047B80A786F
:1028800042B14B7803F00F03082B03D003681B7889
:102890001A4208D090F86000C00702D14878C006FC
:1028A00001D5002070474FF0FF30704710B500F0A1
:1028B00061FA002805D00349896BBDE8104001F09A
:1028C000B5B810BD3000002070B505468089E98993
:1028D000401A04B204E0A96E20208847641E24B286
:1028E000002CF8DC297B2846BDE8704000F06AB86F
:1028F00010B500F03FFA002803D0BDE8104000F00A
:1029000055BC10BD4FF0FF31AFF3008070B50446E9
:10291000481C03D00023E28912B103E00123FAE747
:1029200001294DD0A089824201D14D1C48D00025FB
:10293000824201D1012901D0184613E0521E401EE7
:10294000E28180B2A08121690D542046BDE870402B
:10295000012100F037B822691144421E465C401C38
:102960008E5400B2A289E189521A8242F3DCA08916
:10297000401EA0812BB9E089401EE081A16E082095
:102980008847A18920694554B4F90E5005E02069B3
:10299000A16E405D88476D1C2DB2A089A842F6DC6F
:1029A000A16E20208847A089E189401A401C05B209
:1029B00004E0A16E082088476D1E2DB2002DF8DCC2
:1029C00070BD000070B50C46054603E003A1284623
:1029D00001F02CF8641EE4B2F8D270BD08200800A3
:1029E0004FF0FF3100F09ABA10B5044600F006F837
:1029F0002046BDE81040012100F0AABF70B5044692
:102A00008089002835D0216900251E4E0D5494F888
:102A10006000C00721D0204600F0CCFA204600F02C
:102A2000E1FCE581A581E08E002822D016A1204698
:102A300000F0FCFF00232046A26D616900F076FDE6
:102A4000010004D02046BDE8704000F013BD2046D0
:102A5000B169BDE8704000F0E9BF20688168206975
:102A6000FDF70AFC30B1716B204600F0DFFFA58155
:102A7000E58170BD94F8600040F0010084F86000CA
:102A80003168F1E7300000200D0A0000411C0020F1
:102A90000A785C2A01D01046704749786E290FD019
:102AA00004DC3029F8D0622904D105E0722905D070
:102AB000742907D008467047082070470D207047DA
:102AC0000A20704709207047F0B50746002539787D
:102AD0000A26012328462C462D2908D00021CA1990
:102AE000002192F800C0BCF1300F04D01EE04FF07E
:102AF000FF330121F3E75178782907D0582905D011
:102B0000622905D0422903D002210FE003210DE004
:102B100001210BE092F800C0BCF12E0F06D192F813
:102B200001C0BCF1000F01D0042111E012F801CB6B
:102B3000BCF1000FEED1012908D0022903D00329EE
:102B400006D1102603E00826012501E00226022511
:102B50003D445A1C02D0002215441FE00122FBE72D
:102B60002E2A05D0A2F13007092F03D8FAB20FE0C0
:102B7000012412E0A2F16107052F01D8573A04E0C1
:102B8000A2F14107052F02D8373AD2B200E0002265
:102B900000FB062004EB840254006D1C2A78002AF6
:102BA000DED1042913D194B100EE100AB8EE401A18
:102BB00000EE104AB8EE400AC1EE000A00EE103AEC
:102BC000B8EEC00A20EE800A10EE100AF0BD58439D
:102BD000F0BD2DE9F0410446087827280AD02D28B9
:102BE00003D0A0F13002092A0CD8BDE8F041084614
:102BF000FFF76ABF4A78002AF3D0BDE8F0410846E3
:102C0000FFF744BF0026242807D0002816D000274D
:102C10000D460C46222813D01DE04A78002AF6D033
:102C200000232046491CA26D00F080FC010004D066
:102C30002046BDE8F04100F0B1B83046BDE8F08173
:102C40006C1C254607E05C280BD022280FD0E855E5
:102C50007F1CBFB2641C20780028F4D1EE552846B2
:102C6000ECE7601EFFF712FFE855641CF0E7EE5535
:102C7000EEE72DE9F0478CB00C46824699461546A2
:102C8000202103A8FDF7E6FAA0786E1E00F00F07DA
:102C9000B74200DC374600250DF10C0808E009EBCF
:102CA000850041685046FFF794FF48F825006D1CE9
:102CB000B542F4DB082F3CD2DFE807F004090D121F
:102CC000181E2630A06880470CB0BDE8F087A168C8
:102CD00003988847F8E7DDE90301A2689047F3E726
:102CE00003AB93E80700A3689847EDE703ADA4683A
:102CF00095E80F00A047E7E70798009003ADA468A8
:102D000095E80F00A047DFE7DDE90701CDE9000105
:102D100003ADA46895E80F00A047D5E707AB03AD66
:102D200093E807008DE8070095E80F00A468A04726
:102D3000CAE74FF0FF30C7E7C068704700B5002111
:102D40000B4A30235354491CC9B20929FAD341789C
:102D500001F00F01012903D9072901D9082901D858
:102D6000406800BD4068024900F0C6FD004800BD53
:102D7000540A00200849002051F8202032B192F86E
:102D80006020920702D551F820007047401C00B225
:102D90000528F1DB00207047400A00204A78002017
:102DA00002F00F02921E062A06D2DFE802F00306A6
:102DB0000A0D0D0F8868006870478868B0F9000038
:102DC00070478868007870478868704788684168ED
:102DD00009B1006808470020704700002DE9F05F46
:102DE0005FEA0109054649D0A86B1824002710F4B2
:102DF0007F4F03D000246FF0FF070AE010F47F0F2D
:102E000002D00824274F04E0000E02D010244FF017
:102E10007F470026B246D5F8588033E008EB061B02
:102E20009BF8010000F00F00092829D159462846D7
:102E3000FFF725FD20BBDBF80400AB6B00EA0701C0
:102E400099421DD1FF2202FA04F1084009FA04F167
:102E5000884215D10B434FF00009AB6334B1A4F1A4
:102E60000801DBF804008A40104209D108EB061083
:102E7000816809B128468847C5F838A0BDE8F09FA9
:102E8000761C36B2B5F85C00B042C7DCB9F1000F71
:102E9000F4D049462846C5F838A0BDE8F05F00F0F8
:102EA00099BA00000000FFFF70B50B460546FFF71A
:102EB00061FF04002DD0012D21D02ADD5968A26DBB
:102EC0004FF0000300F032FB050012481BD0C16A2E
:102ED000204600F0ABFD2846FFF730FF01462046B4
:102EE00000F0A4FD0CA1204600F0A0FD2846FFF74D
:102EF00023FF0146204600F099FD07A104E0BDE84C
:102F0000704000F053B981692046BDE8704000F080
:102F10008DBD70BD300000200D0A000070B5002589
:102F20000446002918DDB4F95430A3F10100A4F8D7
:102F30005400B4F85010B4F85200814201D90A4646
:102F400000E002465242934212DC814200D9084618
:102F50004042A4F854000BE009DAB4F85400401CD5
:102F600000B2A4F85400002802DDA4F8545070BD4B
:102F70002046FFF7A9FCB4F95400C0B1B4F85210D0
:102F800008440521401D90FBF1F201FB120004EB07
:102F90008000C16B206900F0FFFBA0810028E6D013
:102FA000E08120462169BDE8704000F03FBDA58169
:102FB000E58170BD70B500250446A0F85450B0F806
:102FC000500058B1B4F85200216900B9052004EB53
:102FD0008000806BFDF750F900281ED0B4F8520035
:102FE000216904EB8000C06B00F0D6FB20B1B4F87F
:102FF0005200401CA4F85200B4F85000401C80B2AB
:10300000A4F85000052802D90520A4F85000B4F80F
:103010005200052801D3A4F8525070BD10B50446E3
:103020000020A081E081A4F85400A4F85000A4F886
:103030005200206094F860000B4640F0010084F8D4
:1030400060000620B2FBF0F02161A0860020A28E75
:10305000411C02FB013204EB8000C26308B2052868
:10306000F5DB11481149A065081A0009A4F85C00B5
:103070000F49002051F820209AB1401C00B20528C9
:10308000F8DB00230BA12046A26D00F04FFA0146A9
:10309000204600F083FA2046BDE81040012100F0F0
:1030A00057BC41F82040ECE710400008F041000810
:1030B000400A00206D7879363636000070B5044637
:1030C0008089A28E521E90420EDB2C484168204619
:1030D00000F0ACFC0121204600F03AFC20462169BA
:1030E000BDE8704000F0A2BCE2890023824210D10A
:1030F000256900F10102A2812954A2892069835423
:10310000E08900F10100E0810846A16EBDE8704051
:10311000084731D2A0EB020000B207E0E58922693E
:103120001544A0F10102AE5C465510B20028F5DC52
:10313000E2892569501CE081A954A0892169401CBD
:1031400080B2A0810B54E089401E05B205E02069E1
:10315000A16E405D88476D1C2DB2A089A842F6DCA7
:10316000E18980B2401A05B204E0A16E08208847C8
:103170006D1E2DB2002DF8DC70BD00003000002067
:1031800010B5FFF7F7FD002803D0BDE8104000F0B0
:10319000A9B810BD10B50446C089002805D0A16E9D
:1031A00008208847E089401EE08110BD2DE9F041EC
:1031B0000646876D0F488168304600F037FC0024D2
:1031C00012E000BF07EB0415687800F00F0001283B
:1031D00008D829463046FFF752FB18B92946304631
:1031E00000F00AF8641C24B2B6F85C00A042E9DCE6
:1031F000BDE8F081300000202DE9F04104460E4684
:103200000846FFF79BFD0146204600F00FFCC0F189
:10321000160005B2002D00DC0425A16E2020884791
:103220006D1E2DB2002DF8D1707800F00F012A48E4
:10323000012901D8016C0CE0072901D8416C08E094
:10324000082901D8816C04E0092901D8C16C00E08B
:10325000016D204600F0EAFB20A1204600F0E6FBCD
:1032600007250127307807FA05F1084201D07820B8
:1032700000E02D20A16E88476D1E6DB2002DF1DAA1
:1032800016A1204600F0D2FB3046FFF755FD05465B
:10329000A06E0026D0B111E0A16E6D1C8847761C8F
:1032A000B6B2242E0AD3687840B1A16E2E2088478A
:1032B000A16E2E208847A16E2E208847287828B13D
:1032C0000D2803D00A2801D0242EE5D32046BDE8DE
:1032D000F04103A100F0AABB300000202020000034
:1032E0000D0A00002DE9F0410646876D104841693E
:1032F000304600F09BFB002414E000BF07EB0415F0
:10330000687800F00F0008280AD9092808D829464B
:103310003046FFF7B4FA18B929463046FFF76CFF7C
:10332000641C24B2B6F85C00A042E7DCBDE8F08182
:10333000300000202DE9F0410646876D10480169F4
:10334000304600F073FB002414E000BF07EB0415C7
:10335000687800F00F0007280AD9082808D82946FD
:103360003046FFF78CFA18B929463046FFF744FF7C
:10337000641C24B2B6F85C00A042E7DCBDE8F08132
:10338000300000202DE9F0410646876D1048C168E5
:10339000304600F04BFB002413E000BF07EB0415A0
:1033A000687800F00F00801E052808D829463046AE
:1033B000FFF765FA18B929463046FFF71DFF641C70
:1033C00024B2B6F85C00A042E8DCBDE8F081000061
:1033D0003000002090F8602022F0040280F8602085
:1033E000FFF76CBE70B50022012311464FEA0204BC
:1033F00000EB8105491C09B26C610829F8DBC48621
:10340000002127E022B905696E5C202E1ED0EEB1A6
:1034100005696E5C222E01D11AB10022012B02D067
:103420000BE00122FAE7C38E082B05D200EB8306DE
:103430005B1C0D44C3867561002305696E5C5C2EC0
:1034400006D14E1CAD5D1DB1B1B201E06C5401233B
:10345000491C89B285898D42D4D870BDC1898289C1
:10346000914206D203694A1CC2815A5C816E1046A1
:10347000084770472DE9F047044690F860000F4672
:1034800040F0020084F86000497800250A0704F142
:1034900014090BD001F00F0001282AD0811E052944
:1034A00036D83946204600F00DF937E00025A84609
:1034B00017E000BF04EB850670690178222904D16A
:1034C00080F800807069401C7061FCF7CEFE80B20D
:1034D0007169401E0A5C222A01D101F800806D1C2E
:1034E000ADB2E08EA842E5D8BA68E08E4946904772
:1034F00005E0E28E4B4639462046FFF7BAFB05460B
:10350000787880060AD42946204600F04FFA05E074
:10351000082803D13946204600F040F814F8600F1F
:1035200020F0020020702846BDE8F0872DE9F04722
:1035300006468A46B16DB0F85C00511AA0EB111036
:103540009946154687B200241BE000BF05EB04181E
:1035500098F8010000F00F00092810D041463046CD
:10356000FFF78DF958B94046FFF7E8FB0146B9F17E
:1035700000000BD002465046FCF78CFE50B1641C94
:10358000A4B2BC42E2D30020BDE8F0875046FCF76D
:1035900073FEF3E705EB0410F6E7000070B5044690
:1035A000016088680D4600B3FCF75FFEE8B1E08E6D
:1035B000022804D3A169A868FCF75EFEA8B194F8BC
:1035C000600020F0010000BF0B4D84F86000204631
:1035D000A96B00F02BFA94F86000C0070AD02046CF
:1035E0002968BDE8704000F021BA94F8600040F00E
:1035F0000100E9E770BD0000300000202DE9F04136
:103600000E460746FFF7B6FB041E16D000233946C8
:10361000A26DFFF78BFF0E4D010010D0487800F02F
:103620000F00801E06280CD33946204600F0FEF914
:10363000696A204600F0FAF90020BDE8F081A96A25
:10364000F7E732462046BDE8F04100F003B800003D
:103650003000002070B50C460546497818484B06E6
:1036600001D5016A18E001F00F01891E062921D257
:10367000DFE801F00306090C1116A068026019E0EA
:10368000A068028016E0A068027013E01146A068EE
:1036900000F082F80EE0C169284600F0C7F909E0A1
:1036A000A068836833B1006810B11146984701E003
:1036B0001046984721462846BDE8704000F002B801
:1036C00030000020FEB523A20C46064607CA8DE84E
:1036D000070021463046FFF761FB0546304661682A
:1036E00000F0A4F91EA1304600F0A0F9607800F0C7
:1036F0000F00052823D06946284600F0D7F8C0F10E
:103700000B006C460119304600F090F915A13046C7
:1037100000F08CF9002130206054491C09B20B29BB
:10372000FADB6946284600F0E7F86946304600F0C3
:103730007DF90EA1304600F079F92846FEBD0CA1B6
:10374000304600F073F92946304600F06FF908A1C1
:10375000ECE7000030303030303030303030300086
:10376000203D20002C203078000000000D0A0000D1
:103770002200000030B504460020024605E0AB42BE
:1037800009D1401C521C80B292B2A35C002B02D023
:103790008D5C002DF3D130BD0246002002E01354B1
:1037A000401C80B20B5C002BF9D1002111547047F2
:1037B0002DE9F05FB0F834804FF0000981890446AC
:1037C0004D4631B12069CA46564600F801A0A76DA2
:1037D0003BE02046FFF7EAFC2046BDE8F05F012110
:1037E00000F0B6B807EB06118B462046FFF747F806
:1037F00048BB5846FFF7A2FA01462069FFF7BAFF17
:10380000A18988421FD1D5B1012D03D126A120461F
:1038100000F00CF907EB091949462046FFF7ECFCCC
:103820005846FFF78BFA83464846FFF787FA594612
:10383000FFF7A0FF4146804500D8084680466D1C32
:103840001FFA86F9ADB2761C36B2B4F85C00B0420D
:10385000C8DC002D26D0012D02D12046FFF734F818
:1038600007EB09100646FFF769FA01462069FFF7E2
:1038700093FFA081012D09D931462046FFF7BCFCFA
:103880000121204600F064F8A4F80C80A289216987
:1038900001F802A0A089E08120462169BDE8F05F1F
:1038A00000F0C4B8BDE8F09F0D0A000030B50B224F
:1038B000031E00DA43420024CC720A240AE000BF4F
:1038C00093FBF4F504FB153593FBF4F3521ED2B2CF
:1038D00030358D54002BF3D1002802DA4FF02D0043
:1038E00002E005D14FF03000A2F10102D2B28854BB
:1038F000C2F10B0040B230BD082200230B720AE077
:1039000000F00F03092B01D9573300E03033521E6A
:10391000D2B200098B540028F2D1C2F1080040B2A3
:1039200070470121FFF7FABA10B5FFF723FA002814
:1039300003D0BDE81040FFF7FDBC10BD10B5FFF788
:1039400019FA002803D0BDE81040FFF71BBD10BDD9
:1039500010B5044690F86000C00719D019B10EA147
:10396000204600F063F820684168204600F05EF8C9
:103970000AA1204600F05AF8A16801B908A1204622
:1039800000F054F807A12046BDE8104000F04EB802
:103990000548016BF7E700000D0A00003A0000003F
:1039A0002F0000002420000030000020FEB516A2E9
:1039B0000D46064607CA8DE8070016A1304600F0FE
:1039C00035F869462846FFF771FFC0F10B006C46D9
:1039D0000119304600F02AF811A1304600F026F80F
:1039E00000223020A054521C12B20B2AFADB694686
:1039F0002846FFF781FF6946304600F017F80AA114
:103A0000304600F013F8FEBD30303030303030300A
:103A10003030300052657475726E3A20000000003C
:103A20002C203078000000000D0A000070B506461A
:103A3000806E00240D46002809D004E0B16E6D1C94
:103A40008847641CA4B228780028F7D1204670BDAE
:103A50000022302100F05AB810B5054C2178002919
:103A600004D00448FEF71CFD0020207010BD0000AB
:103A7000180000203D0900202DE9FF478046DDF8B1
:103A800030904FF000008DF808004FF0FF008DF8E7
:103A900000008DF801001C4615000F464FF002068D
:103AA0008DF802808DF8049007D0E01CC6B28DF826
:103AB00003608DF80570062102E08DF80360052192
:103AC000684600F039F808EB060101EB09003844BC
:103AD0008DF808007DB1002107E0685C9DF80820A2
:103AE000491C10448DF80800C9B2A142F5D3214603
:103AF000284600F021F89DF808000121C0438DF808
:103B0000080002A800F018F8BDE8FF8737B582B0BA
:103B10000C460546FEF719FE03200090012304AA77
:103B200021462846FFF7A8FFFFF796FF2846FCF737
:103B3000F1FB05B030BD000030B5074B074C07E086
:103B40001A78802A04D210F8015BA554521C1A700E
:103B5000491EF5D2187830BD180000203D0900201C
:103B6000000000000000000001020304060708092D
:103B70000000000001020304616D690041726D499B
:103B80006E6974282900616D660041726D466F721E
:103B90006365456E61626C652869642C656E2900F9
:103BA000666C6C00666F726365416C6C28656E298B
:103BB000007361700073617665506F732869642CBF
:103BC00074696D652900676F7000676F506F7328A7
:103BD0006964290070326700506F733247726F75E5
:103BE00070286769642C677069642C7069642900A7
:103BF000646F6700446F47726F75702869642900AD
:103C000073610053617665416C6C326565282900EB
:103C100072610072656164416C6C3272616D282959
:103C2000006D690041726D476F4D6964646C652871
:103C300029006465310041726D53657447726F7578
:103C4000702829007770005772697465506F732867
:103C500069642C706F2C74696D652C737065656474
:103C600029006D7879363636000064656661756CBA
:103C700074207573657200736574566172007365A4
:103C8000742076617200757000646F776E007269DF
:103C9000676874006C6566740074616200626163D9
:103CA0006B7370616365006261636B737061636500
:103CB0000064656C65746500656E74657200656EA0
:103CC0007465720068656C700073686F7720636F4D
:103CD0006D6D616E6420696E666F0D0A68656C704B
:103CE000205B636D645D007573657273006C69734E
:103CF0007420616C6C207573657200636D64730071
:103D00006C69737420616C6C20636D640076617201
:103D100073006C69737420616C6C20766172006B47
:103D2000657973006C69737420616C6C206B6579C4
:103D300000636C65617200636C65617220636F6E15
:103D4000736F6C65000000000D0A436F6D6D616E4E
:103D500064204C6973743A0D0A0000000D0A566124
:103D600072204C6973743A0D0A0000000D0A5573F5
:103D70006572204C6973743A0D0A00000D0A4B6598
:103D800079204C6973743A0D0A000000436F6D6D21
:103D9000616E64206E6F7420466F756E640D0A004C
:103DA0000D0A5761726E696E673A20436F6D6D61DF
:103DB0006E6420697320746F6F206C6F6E670D0ADC
:103DC00000000000206973206E6F7420612076610E
:103DD000720D0A0063616E2774207365742072652A
:103DE0006164206F6E6C79207661720D0A000000AC
:103DF00063616E27742073657420706F696E7465DB
:103E0000720D0A000D0A205F202020202020202093
:103E1000205F2020205F2020202020202020202024
:103E200020202020202020205F2020202020202053
:103E30002020205F205F200D0A7C207C2020202075
:103E40005F5F5F7C207C5F7C207C5F205F5F5F200A
:103E50005F205F5F2020205F5F5F7C207C5F5F20B2
:103E600020205F5F5F7C207C207C0D0A7C207C20F2
:103E700020202F205F205C205F5F7C205F5F2F2051
:103E80005F205C20275F5F7C202F205F5F7C2027E6
:103E90005F205C202F205F205C207C207C0D0A7C32
:103EA000207C5F5F7C20205F5F2F207C5F7C207CFC
:103EB0007C20205F5F2F207C202020205C5F5F2003
:103EC0005C207C207C207C20205F5F2F207C207C5D
:103ED0000D0A7C5F5F5F5F5F5C5F5F5F7C5C5F5F65
:103EE0007C5C5F5F5C5F5F5F7C5F7C202020207C70
:103EF0005F5F5F2F5F7C207C5F7C5C5F5F5F7C5FD0
:103F00007C5F7C0D0A0D0A4275696C643A202020A2
:103F1000202020204D617220203620323032312086
:103F200031353A35343A33300D0A56657273696F5C
:103F30006E3A2020202020332E302E360D0A436F7B
:103F4000707972696768743A2020202863292032CA
:103F5000303230204C65747465720D0A0000000028
:103F60000D0A70617373776F7264206572726F727D
:103F70000D0A0000566172206E6F7420466F756ED8
:103F8000740D0A001B5B324B0D000000434D4420B2
:103F90000000000056415220000000004B4559200F
:103FA00000000000636F6D6D616E642068656C7069
:103FB000206F6620000000000D0A506C656173657B
:103FC00020696E7075742070617373776F72643AD4
:103FD000000000004E4F4E45000000001B5B324ABF
:103FE0001B5B3148000000005553455200000000A3
:103FF000F041000800000020880000005E25000855
:104000007842000888000020481B00006E25000848
:1040100000010000783B0008AD0300087C3B00086D
:1040200000010000863B00086D0300088A3B000881
:1040300000010000A03B00085D040008A43B00084C
:1040400000010000B13B00087D200008B53B0008DE
:1040500000010000C63B000881040008CA3B0008BC
:1040600000010000D43B00084D1E0008D83B0008AA
:1040700000010000F03B00082D040008F43B00089C
:1040800000010000003C0008C51F0008033C0008B8
:1040900000010000103C000851270008133C0008F4
:1040A00000010000213C000889030008243C0008AE
:1040B00000010000323C0008F1030008363C000813
:1040C00000010000443C000805250008473C0008AA
:1040D00000080000623C0008693C00086A3C0008D7
:1040E00000210000773C0008FD3500087E3C0008F8
:1040F0000009000000415B1B23390008863C0008D2
:104100000009000000425B1BE1290008893C00080F
:104110000019000000435B1B5D3400088E3C000862
:104120000019000000445B1B95310008943C000816
:104130000009000000000009B1370008993C0008A0
:104140000019000000000008792800089D3C0008C4
:10415000001900000000007F79280008A73C000833
:10416000001900007E335B1B05290008B13C0008E4
:10417000001900000000000AE9290008B83C000806
:10418000001900000000000DE9290008BE3C0008ED
:1041900000200000C43C0008A92E0008C93C00080B
:1041A00000210000E73C000829390008ED3C000828
:1041B00000210000FB3C0008F1280008003D000839
:1041C000002100000D3D00083D390008123D0008A7
:1041D000002100001F3D000881310008243D000837
:1041E00000210000313D0008AD280008373D0008DF
:1041F0000100000010000000000000000024F40096
:1042000001010000000000000000000002000000AA
:10421000000000000000000000000000000000009E
:10422000043E0008A03D0008483D00085C3D000831
:104230006C3D00087C3D00088C3D0008F03D000806
:10424000D43D0008C43D0008743F0008A43F0008A6
:10425000B83F0008603F0008DC3F0008843F0008CA
:104260008C3F0008943F0008E83F00089C3F00088E
:08427000D43F0008000000002B
:040000050800018965
:00000001FF
